:10000000802F00207D5A0000B7B60000355A00004E
:10001000355A0000355A0000355A00000000000033
:100020000000000000000000000000009D500000E3
:10003000355A000000000000F54F0000355A00005E
:100040005D5200005D5200005D5200005D520000F4
:100050005D5200005D5200005D5200005D520000E4
:100060005D5200005D5200005D5200005D520000D4
:100070005D5200005D5200005D5200005D520000C4
:100080005D5200005D5200005D5200005D520000B4
:100090005D5200005D5200005D5200005D520000A4
:1000A0005D5200005D5200005D5200005D52000094
:1000B0005D5200005D5200005D5200005D52000084
:1000C0005D5200005D5200005D5200005D52000074
:0C00D0005D5200005D5200005D52000017
:0400DC00FFFFFFFF24
:1000E00081F0004102E000BF83F0004330B54FEAE9
:1000F00041044FEA430594EA050F08BF90EA020F56
:100100001FBF54EA000C55EA020C7FEA645C7FEAE8
:10011000655C00F0E2804FEA5454D4EB5555B8BF0B
:100120006D420CDD2C4480EA020281EA030382EA7C
:10013000000083EA010180EA020281EA0303362D0E
:1001400088BF30BD11F0004F4FEA01314FF4801CE1
:100150004CEA113102D0404261EB410113F0004FF3
:100160004FEA03334CEA133302D0524263EB4303AA
:1001700094EA050F00F0A780A4F10104D5F1200E48
:100180000DDB02FA0EFC22FA05F2801841F10001A3
:1001900003FA0EF2801843FA05F359410EE0A5F177
:1001A00020050EF1200E012A03FA0EFC28BF4CF0A8
:1001B000020C43FA05F3C01851EBE37101F000455E
:1001C00007D54FF0000EDCF1000C7EEB00006EEB6B
:1001D0000101B1F5801F1BD3B1F5001F0CD34908F5
:1001E0005FEA30004FEA3C0C04F101044FEA44524C
:1001F00012F5800F80F09A80BCF1004F08BF5FEAD3
:10020000500C50F1000041EB045141EA050130BDB2
:100210005FEA4C0C404141EB0101013C28BFB1F5C4
:10022000801FE9D291F0000F04BF01460020B1FA0F
:1002300081F308BF2033A3F10B03B3F120020CDAE2
:100240000C3208DD02F1140CC2F10C0201FA0CF0C0
:1002500021FA02F10CE002F11402D8BFC2F1200C25
:1002600001FA02F120FA0CFCDCBF41EA0C019040DB
:10027000E41AA2BF01EB0451294330BD6FEA040424
:100280001F3C1CDA0C340EDC04F11404C4F120020F
:1002900020FA04F001FA02F340EA030021FA04F321
:1002A00045EA030130BDC4F10C04C4F1200220FA78
:1002B00002F001FA04F340EA0300294630BD21FAB6
:1002C00004F0294630BD94F0000F83F4801306BF7C
:1002D00081F480110134013D4EE77FEA645C18BF70
:1002E0007FEA655C29D094EA050F08BF90EA020F07
:1002F00005D054EA000C04BF1946104630BD91EAFF
:10030000030F1EBF0021002030BD5FEA545C05D101
:100310004000494128BF41F0004130BD14F5800440
:100320003CBF01F5801130BD01F0004545F0FE41B4
:1003300041F470014FF0000030BD7FEA645C1ABFE9
:10034000194610467FEA655C1CBF0B46024650EA20
:10035000013406BF52EA033591EA030F41F400214C
:1003600030BD00BF90F0000F04BF0021704730B5D2
:100370004FF4806404F132044FF000054FF00001A7
:1003800050E700BF90F0000F04BF0021704730B568
:100390004FF4806404F1320410F0004548BF40423D
:1003A0004FF000013EE700BF42004FEAE2014FEA92
:1003B00031014FEA02701FBF12F07F4393F07F4F6D
:1003C00081F06051704732F07F4208BF704793F070
:1003D0007F4F04BF41F40021704730B54FF4607483
:1003E00001F0004521F000411CE700BF50EA010286
:1003F00008BF704730B54FF000050AE050EA01022F
:1004000008BF704730B511F0004502D5404261EB9E
:1004100041014FF4806404F132045FEA915C3FF4DF
:10042000D8AE4FF003025FEADC0C18BF03325FEA7C
:10043000DC0C18BF033202EBDC02C2F1200300FA2D
:1004400003FC20FA02F001FA03FE40EA0E0021FA52
:1004500002F11444BDE600BF70B54FF0FF0C4CF440
:10046000E06C1CEA11541DBF1CEA135594EA0C0FF2
:1004700095EA0C0F00F0DEF82C4481EA030621EA2D
:100480004C5123EA4C5350EA013518BF52EA033568
:1004900041F4801143F4801338D0A0FB02CE4FF01A
:1004A0000005E1FB02E506F00042E0FB03E54FF04A
:1004B0000006E1FB03569CF0000F18BF4EF0010E42
:1004C000A4F1FF04B6F5007F64F5407404D25FEA3E
:1004D0004E0E6D4146EB060642EAC62141EA5551F1
:1004E0004FEAC52040EA5E504FEACE2EB4F1FD0C33
:1004F00088BFBCF5E06F1ED8BEF1004F08BF5FEAB1
:10050000500E50F1000041EB045170BD06F0004662
:1005100046EA010140EA020081EA0301B4EB5C040F
:10052000C2BFD4EB0C0541EA045170BD41F4801107
:100530004FF0000E013C00F3AB8014F1360FDEBF2C
:10054000002001F0004170BDC4F10004203C35DA08
:100550000C341BDC04F11404C4F1200500FA05F38B
:1005600020FA04F001FA05F240EA020001F000422C
:1005700021F0004110EBD37021FA04F642EB0601A2
:100580005EEA430E08BF20EAD37070BDC4F10C04CC
:10059000C4F1200500FA04F320FA05F001FA04F290
:1005A00040EA020001F0004110EBD37041F100017C
:1005B0005EEA430E08BF20EAD37070BDC4F1200587
:1005C00000FA05F24EEA020E20FA04F301FA05F2EF
:1005D00043EA020321FA04F001F0004121FA04F297
:1005E00020EA020000EBD3705EEA430E08BF20EA67
:1005F000D37070BD94F0000F0FD101F000464000A1
:1006000041EB010111F4801F08BF013CF7D041EA22
:10061000060195F0000F18BF704703F00046520026
:1006200043EB030313F4801F08BF013DF7D043EAF7
:100630000603704794EA0C0F0CEA135518BF95EAAD
:100640000C0F0CD050EA410618BF52EA4306D1D134
:1006500081EA030101F000414FF0000070BD50EA53
:10066000410606BF1046194652EA430619D094EADD
:100670000C0F02D150EA013613D195EA0C0F05D1C7
:1006800052EA03361CBF104619460AD181EA03011B
:1006900001F0004141F0FE4141F470014FF00000D3
:1006A00070BD41F0FE4141F4780170BD70B54FF06E
:1006B000FF0C4CF4E06C1CEA11541DBF1CEA1355EE
:1006C00094EA0C0F95EA0C0F00F0A7F8A4EB0504D0
:1006D00081EA030E52EA03354FEA013100F08880C7
:1006E0004FEA03334FF0805545EA131343EA126390
:1006F0004FEA022245EA111545EA10654FEA002645
:100700000EF000419D4208BF964244F1FD0404F5FD
:10071000407402D25B084FEA3202B61A65EB030559
:100720005B084FEA32024FF480104FF4002CB6EB16
:10073000020E75EB030E22BFB61A754640EA0C0096
:100740005B084FEA3202B6EB020E75EB030E22BFD6
:10075000B61A754640EA5C005B084FEA3202B6EB17
:10076000020E75EB030E22BFB61A754640EA9C00D6
:100770005B084FEA3202B6EB020E75EB030E22BFA6
:10078000B61A754640EADC0055EA060E18D04FEA64
:10079000051545EA16754FEA06164FEAC30343EA04
:1007A00052734FEAC2025FEA1C1CC0D111F4801FD1
:1007B0000BD141EA00014FF000004FF0004CB6E7CA
:1007C00011F4801F04BF01430020B4F1FD0C88BF69
:1007D000BCF5E06F3FF6AFAEB5EB030C04BFB6EB74
:1007E000020C5FEA500C50F1000041EB045170BD67
:1007F0000EF0004E4EEA113114EB5C04C2BFD4EB94
:100800000C0541EA045170BD41F480114FF0000E17
:10081000013C90E645EA060E8DE60CEA135594EA93
:100820000C0F08BF95EA0C0F3FF43BAF94EA0C0F96
:100830000AD150EA01347FF434AF95EA0C0F7FF40B
:1008400025AF104619462CE795EA0C0F06D152EA5F
:1008500003353FF4FDAE1046194622E750EA410643
:1008600018BF52EA43067FF4C5AE50EA41047FF454
:100870000DAF52EA43057FF4EBAE12E753B94AB924
:10088000002908BF00281CBF4FF0FF314FF0FF3098
:1008900000F02AB8ADF1080C6DE904CE00F0E5F8DF
:1008A000DDF804E0DDE9022304B07047D0B50C4B5D
:1008B000002206460F46FFF7CFFD00F09FF80446E2
:1008C000FFF750FD074B0022FFF7C6FD02460B461F
:1008D00030463946FFF708FC00F090F82146D0BDBD
:1008E0000000F03D0000F041704700BF4FF0FF3CBA
:1008F00006E000BF4FF0010C02E000BF4FF0010C1A
:100900004DF804CD4FEA410C7FEA6C5C4FEA430C92
:1009100018BF7FEA6C5C1BD001B050EA410C0CBFE1
:1009200052EA430C91EA030F02BF90EA020F002043
:10093000704710F1000F91EA030F58BF994208BFAA
:1009400090422CBFD8176FEAE37040F00100704767
:100950004FEA410C7FEA6C5C02D150EA013C07D1BE
:100960004FEA430C7FEA6C5CD6D152EA033CD3D009
:100970005DF8040B704700BF8446104662468C4603
:100980001946634600E000BF01B5FFF7B7FF002836
:1009900048BF10F1000F01BD4DF808EDFFF7F4FF5F
:1009A0000CBF012000205DF808FB00BF4DF808EDEA
:1009B000FFF7EAFF34BF012000205DF808FB00BF0D
:1009C0004DF808EDFFF7E0FF94BF012000205DF82F
:1009D00008FB00BF4DF808EDFFF7CEFF94BF0120E4
:1009E00000205DF808FB00BF4DF808EDFFF7C4FFDD
:1009F00034BF012000205DF808FB00BF4A0011D27F
:100A000012F5001211D20DD56FF47873B3EB625268
:100A10000ED44FEAC12343F0004343EA505323FA74
:100A200002F070474FF00000704750EA013002D1E9
:100A30004FF0FF3070474FF00000704738B500228C
:100A4000002304460D46FFF7B1FF28B9204629468A
:100A5000BDE83840FFF72ABF204605F10041FFF707
:100A600025FF404261EB410138BD2DE9F047864644
:100A70008C460846089E154674461946002B40F0E1
:100A8000C2808542B2FA82F245D94AB1C2F120034E
:100A900000FA02FC2EFA03F3954043EA0C0C944052
:100AA0004FEA154EA8B2BCFBFEF8230C0EFB18CC87
:100AB00008FB00F943EA0C43994528D9EB1808F1E3
:100AC000FF3704D2994502D9A8F102072B44A3EBC2
:100AD0000903A4B2B3FBFEFC0EFB1C330CFB00F0BD
:100AE00044EA0344A04214D92C190CF1FF3304D278
:100AF000A04202D9ACF102032C44241A43EA074075
:100B00001EB1D440002334607360BDE8F0874746CF
:100B1000DDE76346F1E792BB431B01214FEA154E27
:100B2000AFB2B3FBFEFC200C0EFB1C330CFB07F832
:100B300040EA0343984562D9EB180CF1FF3004D228
:100B4000984502D9ACF102002B44A3EB0803A4B2F0
:100B5000B3FBFEFC0EFB1C330CFB07F744EA03441B
:100B6000A7424ED92C190CF1FF3304D2A74202D967
:100B7000ACF102032C44E41B43EA0040C0E7C2F19D
:100B8000200320FA03F1954090402EFA03F303432B
:100B90004FEA154EAFB2B1FBFEFC0EFB1C10190C58
:100BA0000CFB07F841EA0041884504FA02F422D917
:100BB00069180CF1FF3004D2884502D9ACF102006B
:100BC0002944A1EB08019BB2B1FBFEFC0EFB1C11FA
:100BD0000CFB07F743EA01439F420ED9EB180CF1D7
:100BE000FF3104D29F4202D9ACF102012B44DB1B3E
:100BF00041EA004192E76046E3E76146F7E7604675
:100C0000A3E76346B7E7834206D916B90021084631
:100C10007BE7C6E900E0F9E7B3FA83F78FB98342CF
:100C200001D3724508D8BEEB020460EB0303012038
:100C30009C461EB9002168E73846FAE7C6E9004C31
:100C4000F8E7C7F1200CBB4022FA0CF41C432EFA43
:100C50000CF120FA0CF3B84001434FEA14490EFAA4
:100C600007F5B3FBF9F81FFA84FE09FB18300B0CEB
:100C700008FB0EFA43EA00439A4502FA07F240D90C
:100C8000E31808F1FF3004D29A4502D9A8F1020016
:100C90002344A3EB0A0389B2B3FBF9F809FB183329
:100CA00008FB0EFE41EA03418E452CD9611808F17C
:100CB000FF3304D28E4502D9A8F10203214443EA4E
:100CC0000040A0FB0298A1EB0E014145CE464346F1
:100CD00002D306D14D4504D2B9EB020E68EB0403F2
:100CE0000138002EA6D0B5EB0E0261EB030101FA2C
:100CF0000CFC22FA07F34CEA0303F940C6E9003181
:100D000098E74046C5E74346D9E7000000000000E9
:100D100010B588B00446164B164A9B1ADB084FF0F4
:100D20000002012161F302026FF3C50263F38F1227
:100D3000114912480AF046F80023019302930393E5
:100D40000493059306938DF81C3007A3D3E9002381
:100D50000B4906A805F014F8192201A9A06C08F0A7
:100D6000C0FE052008B010BD8FC2F5285CFF5840BA
:100D700050DD0000D8DC00004CDE0000F0DD00009B
:100D80005CDE0000000000002DE9F04F91B0144639
:100D90000021442008F028FF914B1860914B03403C
:100DA000002BF5D0904B914A9B1ADB084FF00002C4
:100DB000032161F302026FF3C50263F38F128C49C2
:100DC0008C4809F0FFFF0DF13E0001F039FC844B27
:100DD0001B6813F4804F00F0F780002801DA002030
:100DE000F3E0814B814A9B1ADB084FF0000203219C
:100DF00061F302026FF3C50263F38F127E497D48EF
:100E000009F0E0FF4FF480420021442008F0B3FED7
:100E100000214C2008F0E8FE00F07F01182901D9DC
:100E20000020D2E0754D0022284601F0D7FB0023B8
:100E3000AB700A22724928460AF0F3FC002840F001
:100E4000B080694D694BED1AED084FF003094FF082
:100E5000000269F302026FF3C50265F38F12DFF837
:100E600094816849404609F0ADFF09F0FFF809F0A8
:100E700017F90646644F07A9384609F02BF908A967
:100E8000381D09F027F909A907F1080009F022F92E
:100E9000D4F808B0E768DDF820A00798AAEB0000B6
:100EA000FFF760FACDE90001F01BFFF75BFACDE92F
:100EB00002010998A0EB0A00FFF754FACDE90401FA
:100EC000A7EB0B00FFF74EFA82468B46DDE90023C5
:100ED000DDE90201FFF7C0FA06460F4652465B46BF
:100EE000DDE90401FFF7B8FA02460B463046394601
:100EF000FFF7FAF806460F46DDE90023DDE90201B7
:100F0000FFF7F4F8DDE90423FFF7F0F852465B46FB
:100F1000FFF7ECF802460B4630463946FFF7C6FBB2
:100F2000FFF78CFDFFF76AFA29A3D3E90023FFF747
:100F300093FA29A3D3E90023FFF78EFA06460F465A
:100F40004FF0000ACDF828A0CDF82CA0CDF830A0A5
:100F5000CDF834A0CDF838A002460B462B490AA89C
:100F600004F00EFF4FF0000B69F3020B6AF3C50BA0
:100F700065F38F1B0AA803F013F901465A46404651
:100F800009F020FF079B2360089B6360099B236196
:100F900032463B461E4904F1140004F0F1FE0120E4
:100FA00013E0114B114A9B1ADB084FF0000201219C
:100FB00061F302026FF3C50263F38F1215490D4806
:100FC00009F000FF002000E0002011B0BDE8F08F24
:100FD000FA48CE3B1835B13D0000001319DDB14190
:100FE000F406002000D0272420DD0000D8DC00001B
:100FF00030DF0000F0DD000044DF0000F8060020D4
:10100000080100209CDF000002070020B4DF000080
:101010005CDE00008CDF000010B582B004460023C7
:1010200004320ED27BB99FED0A7B8DED007B41F03F
:10103000040120460CF0F9FC08B140F8044B02B062
:1010400010BD0123EEE70020F9E700BFAFF30080F9
:10105000000000000000000010B50446483000F019
:101060006DFD094B094A9B1ADB084FF00002032172
:1010700061F302026FF3C50263F38F122179044812
:1010800009F0A0FE012010BD50DD0000D8DC0000FA
:10109000A8DD000010B50446483000F04FFD094BB4
:1010A000094A9B1ADB084FF00002032161F3020298
:1010B0006FF3C50263F38F122179044809F082FEB1
:1010C000012010BD50DD0000D8DC0000C4DD0000B0
:1010D00010B504460B4B0C4A9B1ADB084FF000027C
:1010E000032161F302026FF3C50263F38F12074914
:1010F000074809F067FE611DA06C08F00EFD022094
:1011000010BD00BF50DD0000D8DC0000E4DD0000B1
:10111000F0DD000070B5054600F0C6F81D4A1E4B14
:10112000D21AD2084FF00003032161F302036FF3D8
:10113000C50362F38F136E1D10223146174809F064
:1011400086FE0024092C22DC234605F12C0205F141
:101150001501304600F042F9012805D00A2000218F
:1011600008F062F90134EDE70A4B0B4A9B1ADB08E1
:101170004FF00002032161F302026FF3C50263F333
:101180008F122979064809F01DFE042000E0032093
:1011900070BD00BF50DD0000D8DC0000F4DD0000B1
:1011A000FCDD000070B5054600F0A0FB1B4A1C4B9F
:1011B000D21AD2084FF00003032161F302036FF348
:1011C000C50362F38F136E1D10223146154809F0D6
:1011D0003EFE0024092C1EDC234605F12C0205F1FD
:1011E0001501304608F066FC012801D00134F1E712
:1011F0000A4B0B4A9B1ADB084FF00002032161F3F4
:1012000002026FF3C50263F38F122146064809F00C
:10121000D9FD042000E0032070BD00BF50DD0000B8
:10122000D8DC0000F4DD00001CDE000038B5054607
:1012300050200CF0ECFB044605703DB9044BE36410
:1012400004F1480008F062FC204638BD014BF6E787
:10125000F0000020D800002010B5114C114B1B7875
:10126000A37080220021442008F085FC0022214642
:101270000C2000F0A3FF012200210C2000F0CAFF87
:10128000022001F079FB0021442008F0ADFC10F0B1
:10129000800FF8D080220021442008F06CFC10BDA3
:1012A0005C010020AC11002010B5414B414A9B1A53
:1012B000DB084FF00002032161F302026FF3C50265
:1012C00063F38F123C493D4809F07CFD08F00FFEA6
:1012D00001F0D6FD022008F0FEFD08F026FD0028F2
:1012E000FBD0012001F064FAB0F1FF3F37D00320BA
:1012F00001F002FB324800F0ADFF002841D1304B35
:101300001B78052B4FD02F4801F02AFC44F2010036
:1013100008F0F4FC44F2010000F046FF40F2B22075
:1013200001F0D6FA284C204608F062FD24492046F8
:1013300008F085FE032000F0DBFD1D4B1D4A9B1AC3
:10134000DB084FF00002032161F302026FF3C502D4
:1013500063F38F121D49194809F034FD10BD144B79
:10136000144A9B1ADB084FF00002032161F30202CA
:101370006FF3C50263F38F121549104809F022FD7F
:10138000ECE70B4B0B4A9B1ADB084FF000020121E4
:1013900061F302026FF3C50263F38F120D49074830
:1013A00009F010FDDAE70C4801F0DAFBAEE700BF08
:1013B00020DD0000D8DC00007CDE0000F0DD000055
:1013C0006C0100207C01002080841E00B0DE000043
:1013D00094DE0000A0DE0000880100202DE9F04F1F
:1013E00083B00C461546002B65D10646954A964BB0
:1013F000D21AD2084FF00003032161F302036FF306
:10140000C50362F38F1310220146904809F01FFDB7
:10141000304600F08DFD204600F0AAFD00F0C8FD2A
:10142000FFF71AFF0021442008F0DEFB884B18600C
:10143000884B0340002BF5D00DF1060001F000F9B8
:101440000446854A137801331370814B1B6813F4EB
:10145000804F01D0002837DA7A4B7B4A9B1ADB0891
:101460004FF00002012161F302026FF3C50263F342
:101470008F127A497A4809F0A5FC754D7949286898
:1014800008F05EFD2B6813F4804F03D1754A936A10
:1014900001339362002CC0F2CB80BDF90630002BE3
:1014A00040F3CB80704A0021442008F064FB002008
:1014B00003B0BDE8F08F0B46042200216B4808F012
:1014C00051FB00F075FDABE75E4B5F4A9B1ADB08F2
:1014D0004FF00002032161F302026FF3C50263F3D0
:1014E0008F1263495E4809F06DFC4FF4DE42002123
:1014F000442008F040FB00214C2008F075FB00F070
:101500007F01182904D9574A536901335361C9E748
:10151000584C0022204601F061F80023A3700A22F3
:10152000554920460AF07DF920B14E4A936A0133AD
:101530009362B7E708F09AFD8046894608F0B0FD4F
:1015400006460F464D4BC31841F100021C0A44EAFF
:101550000264204608F0F1FB4FF0000A4FEA042B2A
:101560002BF4FF7B2BF0010B240E44F201031BEB49
:10157000030B44F10004C5F800806E60C5F810B09C
:101580003F4D42464B46284608F0B9FD32463B46A1
:10159000281D08F0B4FD5A46234605F1080008F05E
:1015A000AEFDA5F10A012C4B1B788B70524618201A
:1015B00000F004FE01225146182000F02BFE01200D
:1015C00001F0DAF988B11F4B1F4A9B1ADB084FF074
:1015D0000002012161F302026FF3C50263F38F126F
:1015E00028491F4809F0EEFB5CE7164B164A9B1A88
:1015F000DB084FF00002032161F302026FF3C50222
:1016000063F38F122049164809F0DCFB00214420C7
:1016100008F0EAFA10F0800FF8D080220021442070
:1016200008F0A9FA0C4A13780133137001203FE740
:101630000C4AD36A0133D3622FE70A4A136B013392
:1016400013632FE720DD0000D8DC0000F4DD00008C
:10165000F406002000D02724AC11002004DF000095
:10166000F0DD00009806002000FF27241C00020087
:10167000C0DE0000F80600205001002020022E05E8
:1016800042010020F0DE0000D8DE00002DE9F0432A
:1016900083B00D461446002B46D10646824A834B42
:1016A000D21AD2084FF00003032161F302036FF353
:1016B000C50362F38F13102201467D4809F0C7FB72
:1016C000304600F035FC284600F052FC00F070FC7B
:1016D000002008F039FB0021442008F085FA754B02
:1016E0001860754B0340002BF5D06F4B6F4A9B1A67
:1016F000DB084FF00002032161F302026FF3C50221
:1017000063F38F126D496E4809F05CFB0DF1060022
:1017100000F096FF674B1B6813F4804F00F0BF800A
:1017200000280ADA0026BBE00B46042200216548A7
:1017300008F018FA00F03CFCCAE75B4B5B4A9B1AC6
:10174000DB084FF00002032161F302026FF3C502D0
:1017500063F38F125C495A4809F034FB4FF480421E
:101760000021442008F007FA00214C2008F03CFA40
:10177000564D002200F07F01284600F02FFF002385
:10178000AB700A22524928460AF04BF80646002858
:1017900072D1454B454A9B1ADB084FF003084FF0C6
:1017A000000268F302026FF3C50263F38F12494926
:1017B000434809F007FB08F073FC81460D46A06022
:1017C00001F020FD074601F0FBFC0744424B5B7B28
:1017D000023308229A403A444FF69A113F4B01FBDC
:1017E0000233002713EB090345F100021D0A45EA05
:1017F0000265284608F0A1FA2B0223F4FF7323F0B8
:10180000010303F580430133E360354CA770802268
:101810003946442008F0AFF93A4621460C2000F042
:10182000CDFC012239460C2000F0F4FC642001F0CC
:101830004FF8404601F0A0F890BB1B4B1B4A9B1A87
:1018400023FA08F34FF0000268F302026FF3C502B7
:1018500063F38F1223491A4809F0B4FA0021442097
:1018600008F0C2F910F0800FF8D080220021442047
:1018700008F081F9012613E00B4B0C4A9B1ADB0898
:101880004FF00002012161F302026FF3C50263F31E
:101890008F1215490A4809F095FA002600E0002643
:1018A000304603B0BDE8F08320DD0000D8DC000046
:1018B00024DF0000F406002000D0272430DF0000E1
:1018C000F0DD00001C00020044DF0000F8060020EC
:1018D0002C01002060DF00006C010020E001920478
:1018E0002001002078DF00008CDF000008B508F040
:1018F000FEFA01F0C5FA022008F0EDFA08F015FA38
:101900000028FBD0012000F053FFB0F1FF3F20D0B2
:10191000032000F0F1FF234800F09CFC58BB214B52
:101920001B78052B39D0204801F01AF944F2010048
:1019300008F0E4F944F2010000F036FC032000F066
:10194000D7FA4FF4FA7000F0C3FF184808F050FAC5
:1019500008BD174B174A9B1ADB084FF00002012104
:1019600061F302026FF3C50263F38F121249134849
:1019700009F028FAECE70E4B0E4A9B1ADB084FF0F1
:101980000002012161F302026FF3C50263F38F12BB
:101990000B490A4809F016FADAE70A4801F0E0F8BC
:1019A000C4E700BF6C0100207C01002080841E0081
:1019B00020DD0000D8DC000094DE0000F0DD000037
:1019C000A0DE00008801002030B583B004460D463B
:1019D0000022002301A9124806F096FFA3681B68A5
:1019E0001BB12A460F49204698470199A368DD6834
:1019F00042F2107318222046A8470B4B0B4A9B1A41
:101A0000DB084FF00002032161F302026FF3C5020D
:101A100063F38F120649074809F0D4F903B030BDCB
:101A2000F8020020391A000040DD0000D8DC000078
:101A3000C4DF0000F0DD000070B582B00C46154632
:101A40000B78042B24D8DFE803F003253756640015
:101A50008B682B62314D324BED1AED0803264FF0A7
:101A6000000266F302026FF3C50265F38F12896804
:101A70002C4809F0A7F94FF0000366F302036FF357
:101A8000C50365F38F13A2686168274809F0DFF981
:101A900002B070BD214B224A9B1ADB084FF00002B6
:101AA000012161F302026FF3C50263F38F121F4934
:101AB0001F4809F087F9EBE7CB68182B09D8616854
:101AC000A368E2681944281D09F0BDFEE368EB61D4
:101AD000DEE7124B124A9B1ADB084FF0000201218D
:101AE00061F302026FF3C50263F38F1211491048CC
:101AF00009F068F9E3E706460022002301A90E4831
:101B000006F002FFB3681B69182201993046984716
:101B1000BEE7043108480BF0AAFCB9E740DD00003D
:101B2000D8DC0000D0DF0000E4DF0000F0DF0000C0
:101B3000F0DD0000FCDF0000F802002070B582B08C
:101B4000044603680022DA610B4B6D4693E80300FC
:101B500085E803002668094806F0E8FC3060236841
:101B60002946186807F0B4FF21680868FFF72CFFC2
:101B7000012002B070BD00BF90DD00002CE000002D
:101B800000B586461046002307E01EF803C08CEA25
:101B9000000C044A12F80C0001338B42F5DB5DF8AF
:101BA00004FB00BF10070020F0B585B004461D46B9
:101BB000BDF8280001EB040CCCF3044C214401F0E7
:101BC0007F03990041EA4C2E71460143090A8DF8C2
:101BD0000C1000F0030646EA0E068DF80D6016465E
:101BE00002BB630063F07E038DF80C30012778B3ED
:101BF00080F40040032852D8294B1B681B7D03B397
:101C00000022394603A8FFF7BBFF024631462846AB
:101C1000FFF7B6FF00902B46324603A9384601F085
:101C200035FA20E01BB9B0F5004F06D038B141F0CD
:101C300040018DF80C100227D9E70127D7E70127CB
:101C4000D5E72B46324603A9384601F059FA0AE097
:101C50002B46324603A9384601F07CFA104B1B682C
:101C60001B7D022B01D005B0F0BD182CFBD000224B
:101C7000394603A8FFF784FF024631462846FFF79E
:101C80007FFF04460021182007F0D6FF8442EAD0E7
:101C9000034B1B685B6A002BE5D09847E3E7FEE740
:101CA0006801002008B500221146024807F063FFD2
:101CB00008BD00BF0400070010B50446002211460D
:101CC000084807F058FF002211464FF4E02007F0C3
:101CD00052FF04B910BD4FF0E0520021024807F056
:101CE0004AFFF7E7480007001400070010B5044654
:101CF000012802D0052C07D010BD41F62202002198
:101D0000054807F04DFFF5E74FF400720021024847
:101D100007F046FFF0E700BF0400110038B50446A5
:101D20000A4D01220021284607F03AFF22460021F1
:101D3000074807F035FF02220021284607F030FF50
:101D40000021044807F050FF38BD00BF08000B0019
:101D500004000B0010000B0008B5052802D009286C
:101D600008D008BD40236FF400520021064807F058
:101D700070FFF6E74FF401536FF400520021024860
:101D800007F067FFEDE700BF08000B0070B50546E0
:101D90000C46164E4FF008234FF0FF32002130461C
:101DA00007F057FF4FF060134FF0FF32002130462D
:101DB00007F04FFF052D09D00D4B4FF0FF320021EA
:101DC0004FF4E02007F045FF4CB970BD094B4FF0D0
:101DD000FF3200214FF4E02007F03BFFF4E7064A12
:101DE0000021064807F0C7FEEFE700BF48000700E4
:101DF000001C0002003C0002001101011400070059
:101E000008B5052802D0092808D008BD074B4FF0B7
:101E1000FF320021064807F01CFFF6E7054B4FF0A4
:101E2000FF320021024807F014FFEEE7003C0002F9
:101E300004000700001C000208B54FF4C0734FF601
:101E4000FF720021064807F02BFF064B1B681B7A28
:101E50004FF6E0720021044807F022FF08BD00BFE2
:101E600008000B00680100201F00110010B50128B8
:101E700017D002281FD00123FF2200211A4807F0A3
:101E800026FF1A4C4FF400036FF4807200212046A5
:101E900007F0DFFE00237F220221204607F017FF14
:101EA00010BD0520FFF722FF0123FF2219460F482E
:101EB00007F00DFFF4E70323FF2200210A4807F093
:101EC00006FF0A4C4FF400036FF480720021204695
:101ED00007F0BFFE00237F220221204607F0F7FE15
:101EE0000520FFF703FFDBE70400110008001100E5
:101EF00010B5044600214FF4A02007F075FE0B4AF0
:101F0000024014F0010F01D042F4802214F0020FBD
:101F100001D042F4104214F0040F01D042F012023A
:101F200000214FF4A02007F026FE10BDC00FE0FFF7
:101F300010B5044602680021094807F01CFE6268DB
:101F40000021084807F017FEA2680021064807F0A4
:101F500012FEE2680021054807F00DFE10BD00BF2B
:101F60000C00020010000200140002001800020021
:101F700010B5044602680021094807F0FCFD6268BC
:101F80000021084807F0F7FDA2680021064807F085
:101F9000F2FDE2680021054807F0EDFD10BD00BF2D
:101FA0001C000200200002002400020028000200A1
:101FB00008B50123FF220021014807F088FE08BD73
:101FC000040002002DE9F843052836D0204C2546B0
:101FD000204E214FDFF8C880DFF8C8901F4A00214B
:101FE0001F4807F0C8FD4A4600211E4807F0C3FD00
:101FF000424600211C4807F0BEFD3A4600211B481E
:1020000007F0B9FD32460021194807F0B4FD2A4611
:102010000021184807F0AFFD22460021164807F0BE
:10202000AAFD164A0021164807F0A5FD154A002111
:10203000154807F0A0FDBDE8F883144C144D154E6B
:10204000154FDFF86480DFF86490144AC7E700BFDB
:10205000B5AF02007DAF02003EAF0200FEA8020055
:10206000380003003C00030040000300440003006C
:10207000480003004C000300500003004002001021
:102080001C00030089A46D1B20000300F5CF010094
:10209000B5CF010036CF01007EC70100FDC00100B1
:1020A000FEA5020036AC0200BEC601003EC401001F
:1020B00038B5264C264A0021204607F05CFD102347
:1020C000FF220021204607F002FE002401E0013437
:1020D000E4B2022C0AD8142007F011FF00211D4899
:1020E00007F0AAFD0128F2D1002300E001231BBB69
:1020F0000025164C00221146204607F060FD012203
:102100000021144807F05BFD0123FF220221204635
:1021100007F0DDFD0021104807F066FD6FF0604319
:1021200098420CD000210D4807F05EFD6FF060432F
:10213000984207D0284638BD4FF0FF35D9E74FF019
:10214000FF35EFE74FF0FF35F4E700BF0C00040068
:102150000100020020000400140004001C00040020
:1021600070B504460026012806D0FFF7A1FF0546FA
:10217000012C10D0284670BD0A4D3146284607F084
:102180004AFD064640F205134FF6FF72002128462D
:1021900007F086FDE9E7002332461946014807F0BB
:1021A0007FFDE7E74800070008B502460021024826
:1021B00007F0F6FC08BD00BF040001001318B3F5DA
:1021C000806F20DA70B505460E4614467F2A08D87F
:1021D0000B46024621464FF4A01007F0C3FC002036
:1021E00070BD14220021094807F0C5FC22460021D9
:1021F000074807F0C0FC33462A4600214FF4E81098
:1022000007F0B0FCEBE74FF0FF30704704001F0011
:1022100008001F0008B57F2909D840EA014040EABC
:10222000C2230B4A0021242007F013FD08BD803192
:1022300040EA014040EAC223054A0021242007F079
:1022400008FD00214FF4002007F0F6FCEEE700BF88
:1022500000F400FC2DE9F843044607780379182BB5
:1022600004D8C378182B15D9012600E00126F6B250
:10227000E379012B10D000216378013B062B00F29B
:10228000F980DFE813F0FA00F700F7000B00F40024
:10229000F7000E000026EAE71021EDE74FF02009D5
:1022A00001E04FF04809B74B1B681A8A22F0E002A0
:1022B0001A82E2791A73607B0230012585401FFA89
:1022C00085F84FEAC80207EE902AF8EE677A9FED8C
:1022D000AE7A67EE877AFDEEE77A17EE902A5A8299
:1022E000227B5A75A07B130303F4304343EA004377
:1022F000227A520102F0200213430B43A34A002129
:10230000102007F0A6FC002E40F0BA80237BABB172
:10231000A37B012B40F2D980607B042210219C4BCF
:1023200033F8100007F00AFC09EBC80900F07F033E
:102330004FF680720221974807F0B2FCB9F1FF0F07
:1023400040F3CC808F4B1A68138A43F0200313822A
:102350004FF480636FF4C05200218F4807F079FC7E
:10236000A378FC2200214FF4C02007F0B0FC6A1EC5
:10237000D2B200214FF4003007F021FC6378072B24
:1023800000F0B580002007F0C1FC237B03F00303BD
:10239000032B00F0B080814A0021814807F0EBFB5D
:1023A0000021804807F020FC20F4FF5020F01F009F
:1023B000092F00F0A6802279120202F4F85202439B
:1023C000E378DB00DBB213436279520002F00602CD
:1023D0001A430021734807F0CEFBA27963781B03F0
:1023E00043EA82236FF474420021242007F031FC79
:1023F00063890BB981236381628902214FF4C02074
:1024000007F0CEFB092F7FD0674A0021674807F00D
:10241000B2FB41F63C7200214FF4102007F0C0FBE4
:1024200014220121624807F0CAFB0E2202216148F2
:1024300007F0C5FB812200215F4807F0C0FB0222A4
:102440000021442007F0BBFB0120FFF70FFD002512
:10245000052D6BD8142007F052FD0021442007F011
:10246000EBFB10F0020F7DD10135EDB2F0E74FF03C
:10247000800918E74FF4807915E74FF0400912E71B
:10248000404B1A68138A43F0600313824FF4406391
:102490006FF4C0520021404807F0DBFB40F20632E7
:1024A0000021464807F067FB002211464FF00E104E
:1024B00007F061FB424A0021364807F05CFB7D22B1
:1024C0000021404807F07BFB4AE7607B0322102194
:1024D0002F4B33F8100007F031FB25E74FF4A053E2
:1024E0006FF4C05200212C4807F0B3FB38E70820F6
:1024F00007F00CFC49E7344A0021294807F03BFB70
:102500004EE740F0010056E7304A0021274807F027
:1025100032FB40F63C7200214FF4102007F040FBE4
:102520002B4A00212B4807F026FB79E7012333BB18
:102530002379093BDBB20F2B1AD8124B1B685B7A4D
:10254000012B11D03846FFF73DFD4FF4C84348F248
:10255000FF120021204807F0A3FB0120FFF700FE37
:10256000BDE8F8830023E2E778B2FFF7F5FBECE77C
:102570000023FE221946184807F0A9FBEDE74FF0AB
:10258000FF30EDE7680100206666663FCF4FFCFF35
:102590005CE0000012000E0008000B004C585FAF1A
:1025A0000C000600140001003411071C1C00070079
:1025B0005000070018000700080009000C000E007A
:1025C0000A5A0C0016000E00CC355FAF3400011C17
:1025D00033A8B508100007001800030070B50646C0
:1025E0000D461446134B1B68DB7B032B0DD04FF4B9
:1025F00090106319B3F5806F06DA7F2C08D8334644
:102600002A46214607F0E8FA70BD4FF49810F0E72B
:10261000020C0021084807F0AEFA224600210748C4
:1026200007F0A9FA33462A4600214FF4E81007F0D4
:10263000D3FAE9E76801002004001F0008001F002A
:1026400010B504460021094807F0E5FAC0F30B0372
:1026500010F4006F01D043F470431BB22380044A8E
:102660001268B2F91200181A10BD00BF080002006B
:102670006801002010B50446012915D0144A4FF016
:102680000C10144B1B68DB7B012B10D0032B15D1D6
:10269000114911444FF4F01007F0BDFAC009208031
:1026A00023888BB9002010BD0C4A0D48E9E70221B0
:1026B000104607F0B0FAC0092080F1E7022107F0C8
:1026C000AAFAC0092080EBE74FF0FF30EBE700BF2C
:1026D0002C001800680100200200E8FF34001800F8
:1026E00014000C0008B503460C4A1268D27B012A7C
:1026F00008D0032A0CD1052204214FF4F01007F072
:102700006BFA08BD05220021054807F065FAF8E7D5
:1027100005220021642007F05FFAF2E7680100203B
:102720000400180010B5002211464FF4202007F0D5
:1027300037FA00221146074807F041FA064C0022FA
:102740001146204607F03BFA02220021204607F0FE
:1027500036FA10BD14000A0004000A0010B507F094
:10276000C7FA04460E4B0F4A9B1ADB084FF00002D3
:10277000032161F302026FF3C50263F38F12014676
:10278000094808F01FFB094B9C4204D0103B9C42B7
:1027900003D1002010BD0020FCE74FF0FF30F9E727
:1027A000E8DC0000D8DC00004CE000001203CADEC8
:1027B000F8B50446434B1B680022DA7302211982E4
:1027C0001A755A759A72DA729A62DA621A635A63E1
:1027D000DA639A63FFF7C2FF00286FD10646042030
:1027E000FFF79CFA05460520FFF798FA07460A20EE
:1027F000FFF794FA334B1A68C0F30440107215B116
:102800000FB1002836D12020FFF788FA2E4B9842CE
:1028100033D02C4B1B6800225A7214F0100F31D1A8
:1028200014F0200F35D114F0400F39D114F0800F7F
:102830003DD1244B1B68DA7A0AB98522DA729A7A7A
:102840000AB974229A721F20FFF768FA1D4C236898
:1028500058731E20FFF762FA236800F07F00987318
:1028600008B92E229A739A7B0021184807F0A7F91D
:102870003046F8BDFFF7E0FAC5E7124B1B680122AE
:102880005A72CAE70F4B1D680620FFF747FA286007
:10289000C6E70C4B1D680720FFF740FA6860C2E7E7
:1028A0000820FFF73BFA074B1B689872BEE7092028
:1028B000FFF734FA034B1B68D872BAE74FF0FF36C4
:1028C000D6E700BF68010020400200101400090094
:1028D00038B50446074D0021284607F085F9000D5C
:1028E0000005C4F3130202430021284607F043F910
:1028F00038BD00BF0800010038B510F0010F25D029
:1029000004464FF410736FF47C6200214FF4A02052
:1029100007F09FF94FF404034FF0FF3200211348F2
:1029200007F097F914F002040ED14FF488752A4687
:1029300000210F4807F01FF9BCB105F4887200218F
:102940000B4807F018F910E00A4DF0E700236FF488
:102950007C6219464FF4A02007F07BF900234FF664
:10296000FF621946024807F09BF938BD04001100C8
:102970001600110010010F0008B510F01D0F6DD0EA
:1029800010F0010F1FD010F0020F15D000231A46CF
:1029900019460D2007F0E6F80321442007F04CF912
:1029A00010F0080F51D10021414807F01DF9B0F592
:1029B000502F41D0002008BD00231A46194603209D
:1029C00007F0D0F8E8E710F0080F10D010F0020F71
:1029D00006D000231A4619460F2007F0C3F8DBE79C
:1029E00000231A461946072007F0BCF8D4E710F078
:1029F000100F10D010F0020F06D000231A4619460F
:102A00000E2007F0AFF8C7E700231A461946052045
:102A100007F0A8F8C0E710F0020F06D000231A460E
:102A20001946102007F09EF8B6E700231A4619460B
:102A3000092007F097F8AFE700231A461946184611
:102A400007F090F84FF0FF30B5E700231A4619461B
:102A5000184607F087F84FF0FF30ACE710F0200F72
:102A600012D010F0020F07D000231A461946112089
:102A700007F078F800209EE700231A4619460B203D
:102A800007F070F8002096E710F0020F07D000233F
:102A90001A4619460C2007F065F800208BE7002342
:102AA0001A461946012007F05DF8002083E700BFB1
:102AB00030000F0008B5FFF735FE012007F01BFAC4
:102AC0000323FF220021094807F001F900221146E3
:102AD0004FF4881007F073F8012007F00CFA044B4C
:102AE0001B680122DA7300221A8208BD040011005B
:102AF0006801002038B505460C460120FFF7F6F8BE
:102B000000212046FFF742F92046FFF779F9C5F387
:102B10000B0200210F4807F043F80323FF22002196
:102B20000D4807F0D4F800210B4807F085F810F0A5
:102B3000010FF8D1FFF7B6F80020FFF7BDF8052028
:102B4000FFF7D4F80021054807F076F800F03F00C1
:102B500038BD00BF1C000800100008001C00070062
:102B600010B50446038953B9027800210B4807F0D9
:102B700026F8626800210A4806F0FDFF10BD00211A
:102B8000084807F059F810F0010F04D105212089F9
:102B9000FFF7B0FFEDE70921F9E700BF1C000700D0
:102BA0000C0001001400010010B5A54AA54BD21A73
:102BB000D2084FF00003032161F302036FF3C50352
:102BC00062F38F13A04C14222146A04808F00CF9A0
:102BD000204605F0ABFC9E4B1860002800F0B88042
:102BE0004FF40072142107F01BF901221421984BB5
:102BF000186807F04DF9924A924BD21AD2084FF05A
:102C00000003032161F302036FF3C50362F38F1323
:102C1000122221468F4808F0E7F88B4805F086FC21
:102C20008D4B1860002800F0A7804FF4007212212D
:102C300007F0F6F801221221874B186807F028F9EF
:102C40007F4A804BD21AD2084FF00003032161F370
:102C500002036FF3C50362F38F130F2221467F48EF
:102C600008F0C2F8784805F061FC7D4B1860002838
:102C700000F096804FF400720F2107F0D1F8012286
:102C80000F21774B186807F003F96D4A6D4BD21A84
:102C9000D2084FF00003032161F302036FF3C50371
:102CA00062F38F130E2221466E4808F09DF86648A5
:102CB00005F03CFC6C4B1860002800F085804FF458
:102CC00000720E2107F0ACF801220E21664B186845
:102CD00007F0DEF85A4A5B4BD21AD2084FF00003D5
:102CE000032161F302036FF3C50362F38F130C2218
:102CF00021465E4808F078F8534805F017FC5C4B15
:102D00001860002874D04FF4B0520C2107F088F8F6
:102D10004B4A4C4BD21AD2084FF00003032161F307
:102D200002036FF3C50362F38F130B222146514850
:102D300008F05AF8444805F0F9FB4F4B186000289A
:102D40006AD04FF4B0520B2107F06AF8002010BD92
:102D50003B4B3C4A9B1ADB084FF00002012161F318
:102D600002026FF3C50263F38F122146434808F055
:102D700029F84FF0FF30EAE7314B324A9B1ADB0863
:102D80004FF00002012161F302026FF3C50263F309
:102D90008F122146394808F015F84FF0FF30D6E77A
:102DA000274B284A9B1ADB084FF00002012161F3F0
:102DB00002026FF3C50263F38F1221462F4808F019
:102DC00001F84FF0FF30C2E71D4B1E4A9B1ADB088B
:102DD0004FF00002012161F302026FF3C50263F3B9
:102DE0008F122146254807F0EDFF4FF0FF30AEE788
:102DF000134B144A9B1ADB084FF00002012161F3C8
:102E000002026FF3C50263F38F1221461B4807F0DD
:102E1000D9FF4FF0FF309AE7094B0A4A9B1ADB08AB
:102E20004FF00002012161F302026FF3C50263F368
:102E30008F122146114807F0C5FF4FF0FF3086E79B
:102E400018DD0000D8DC000078E0000080E0000021
:102E500064080020C4E0000060080020ECE00000EE
:102E60005C08002018E100005808002044E1000040
:102E70005008002074E1000054080020ACE000007D
:102E800008B50C4B0C4A9B1ADB084FF000020321DB
:102E900061F302026FF3C50263F38F12074908481A
:102EA00007F090FF07F01FF8FFF704FE07F01FF888
:102EB00008BD00BF18DD0000D8DC0000A0E1000064
:102EC000F0DD000038B5404A404BD21AD2084FF02E
:102ED0000003032161F302036FF3C50362F38F1351
:102EE0003B4C3C4A21463C4807F07EFF3B4805F0FE
:102EF0001DFB3B4B186038B1394A16231371002370
:102F00009360012151711BE02F4B304A9B1ADB0863
:102F10004FF00002012161F302026FF3C50263F377
:102F20008F1221462F4807F04DFF4FF0FF3035E05C
:102F300003EB43012C4A02EB8102294991600133E2
:102F4000032BF5D90122162106F0EDFF274B264A67
:102F50001A60204805F0EAFA254B1860F8B1234BB7
:102F60001B684FF480729A80224A1A60224DFF2219
:102F70000021284608F097FC204CFF220021204623
:102F800008F091FC1E4B1D609C601E490B601E4AA0
:102F90000833136001234B605360002038BD0A4B97
:102FA0000A4A9B1ADB084FF00002012161F302027A
:102FB0006FF3C50263F38F122146144807F002FF36
:102FC0004FF0FF30EAE700BFF0DC0000D8DC000083
:102FD00000E20000B4E10000BCE1000078E0000085
:102FE00068080020C8E10000940A0020C40A0020FC
:102FF000C80A002080841E00940900209408002044
:10300000840800207C08002074080020E4E100000F
:1030100008B5094B094A13604FF480729A80084A38
:103020001A60FF220021074808F03DFCFF22002122
:10303000054808F038FC08BD940A0020C40A0020A6
:1030400080841E00940900209408002008B50A4BD3
:103050000A4A13604FF480729A800C3B084ADA6087
:10306000FF220021074808F01EFCFF22002106482D
:1030700008F019FC08BD00BFA00A0020C40A002007
:1030800000127A0094090020940800202DE9F041F4
:103090008418A4B20134A4B2FF2C22D806461546E7
:1030A0001F46DFF858800246404608F0CCFB2A460F
:1030B000394608EB060008F0C6FB35449DF8183089
:1030C00008F80530084B5C60DC60084B1868084B5A
:1030D000196883681C68074B074AA0470020BDE8B1
:1030E000F0814FF0FF30FAE784080020C80A002082
:1030F000C40A0020740800207C08002094090020E5
:10310000F8B5054614461E460C4F0246384608F0F0
:103110009AFB22463146781908F095FB2C44084B5F
:103120005C60DC60074B1868074B196883681C6893
:10313000064B074AA0470020F8BD00BF94090020B5
:1031400084080020C80A0020C40A00207408002057
:103150007C0800202DE9F8430446884615461E46A3
:103160008718DFF858903A460021484608F09BFB44
:1031700022464146484608F066FB0A4B5F60DF6026
:10318000094B1868094B196883681F68084B094A7E
:10319000B8472A4608492144304608F054FB00202D
:1031A000BDE8F88384080020C80A0020C40A002073
:1031B000740800207C080020940800209409002056
:1031C0000F4B5B78023B0B2B07D8DFE803F00B14A7
:1031D00006060E06061711060608002070474FF473
:1031E000C07070474FF4607070474FF4B060704724
:1031F0004FF4F06070474FF478607047802070475C
:103200006C010020034B9B790BB100207047C82054
:10321000704700BF6C010020014B1860704700BF71
:103220009401002010B584B0044601900291002161
:10323000039101A9054800F011FB039B029A9342F8
:1032400001DA0022E254039804B010BD63A100002B
:103250002DE9F04383B0044608461546238B13F04E
:10326000080F05D103F0070600230093019355E0F2
:10327000012909D043F02003238385F31188BFF38C
:103280006F8F03B0BDE8F08343F010032383F4E7AE
:10329000204606F0C5FF43E0D4F814904A4669463C
:1032A000204606F0D6FF4FF00008238B03F00707F7
:1032B000B74269D0A268002A66D0012243F0080311
:1032C000238385F31188BFF36F8F002A64D1009B9D
:1032D0002BB14B463A466946204607F033F8B8F121
:1032E000000F02D034492046C0474FF02003EFF3CF
:1032F000118583F31288BFF36F8F238B23F00803AC
:103300002383238B13F0100F4CD023F0100323835F
:103310000120268B06F007060028AED00228B7D081
:103320000028AAD0013804282AD801A353F820F095
:10333000993200008133000045330000593300000A
:103340006D3300002369D3F800800621204606F083
:103350003DFF4FF00009A8E72369D3F8048004215A
:10336000204606F033FF4FF000099EE72369D3F8AB
:1033700008800521204606F029FF4FF0000994E758
:103380004FF00008C14690E7009A0AB1002295E785
:10339000B8F1000F92D1B4E74A463946204606F00C
:1033A0001DFF94E713F0200F04D023F020032383A4
:1033B0000220AEE70020ACE773A300008446084675
:1033C000012226E09CF8003043F004038CF8003022
:1033D000F2B101301CE09CF8003043F008038CF897
:1033E0000030F5E79CF8003043F010038CF8003013
:1033F000EEE79CF8003043F020038CF80030E7E75C
:103400009CF8003043F040038CF80030E0E70022E5
:1034100042B30378203B102BF9D801A151F823F0D7
:10342000E53300000F3400000F340000F3330000D8
:103430000F3400000F3400000F3400000F34000080
:103440000F3400000F3400000F340000D7330000A9
:103450000F340000C53300000F3400000F340000AB
:10346000013400009CF8003003F04403442B00D0EA
:1034700070479CF800306FF386138CF80030F7E744
:103480002DE9F04F87B055EC104B07460E46994694
:1034900021462B1E06DB007810F0080F12D02B20DF
:1034A000107001E02D20107097F80380C3F30A54C8
:1034B000C3F313030491059354B951EA030227D1CE
:1034C000002206E010F0100FEED020201070EBE785
:1034D000002240F2FF7084421CD0B8F1460F59D050
:1034E000DB0243EA5153C9020491059323F00043E0
:1034F0000593214343EAE473194307D0002A4DD1D1
:10350000A4F2FE34059B43F000430593002566E0DA
:103510000122DEE70B4322D1A8F14108B8F1190FCF
:1035200011D8492389F800304E2389F8013009F178
:103530000302462389F802303B786FF386133B7011
:10354000109B1A6074E1692389F800306E2389F8B2
:10355000013009F10302662389F80230ECE7A8F193
:103560004108B8F1190F0AD84E2389F800304122DA
:1035700089F8012009F1030289F80230DCE76E23A3
:1035800089F80030612289F8012009F1030289F8E5
:103590000230D1E74FF06608A2E7013C049B059A90
:1035A000DB18524104930592002AF6DAA8E7059B3E
:1035B000049A520842EAC3725B08049205932146BA
:1035C0000134B3F1333FF2D29C0044EA927490008C
:1035D000801843EB0403049005938C1C013D14F107
:1035E000020FE4DB14E0049B0233059A42F100026F
:1035F0000493059204A807F0A8FA013C0135049A47
:10360000059B92185B4104920593013C002BF6DA6E
:10361000002CE8DCC4F10401059A1C34A1F120005F
:10362000049BCB4002FA04F4234322FA00F0034344
:10363000CA4004930592B8F1670F14D0B8F1470F50
:1036400011D04FF0000BB8F1660F2AD006F1010A35
:10365000102303939A4500DD9A4600224FF0006341
:10366000CDE9002329E015F1030F01DBB54211DD9F
:10367000A8F102085FFA88F8002E00DD013E3B78D1
:10368000C3F3401B13F0200F08D1002EDBDD4FF0F9
:10369000010BD8E7761B4FF06608F0E74FF0000B00
:1036A000D1E715EB060AD3D5102303934FF0000A98
:1036B000D3E7684607F065FAA2460AF1FF34BAF18B
:1036C000000FF6D1049B009A9B18059A019942EBD2
:1036D0000102049305924FF0FF3199426FF070435D
:1036E000934106D3B8F1660F38D1002D31DD4C4639
:1036F0000BE004A807F045FA0135F3E703A904A895
:1037000007F04BFA04F8010B013D002D02DD039B8D
:10371000002BF3DC7D6055463B7813F0200F01D180
:10372000002E02DD2E2304F8013B002D33DA002E9B
:1037300031DD6B427B609E4200DA7E607B68F61A68
:10374000002BD4BF00230123BA7863F34512BA706B
:1037500021E04C46302304F8013BDDE703A904A82F
:1037600007F01BFA4C4604F8010B302800D0013D4D
:103770003B7813F0200F01D1002E0CDD09F102047B
:103780002E2389F8013006E003A904A807F005FA02
:1037900004F8010B013E002E02DD039B002BF3DC3D
:1037A000BE60BBF1000F09D00023BB6023461C465E
:1037B00013F8012D302AFAD02E2A3DD0B8F1650F2A
:1037C00002D0B8F1450F26D184F80080002D35DBFA
:1037D000A21C2B236370632D0CDD1E4981FB053178
:1037E000EB17C3EB611303F1300102F8011B6421F5
:1037F00001FB1355184981FB0531EB17C3EBA103FE
:1038000003F13001144604F8021B03EB8303A5EB1C
:103810004303303353707B68002B14DD4FF0010AF3
:10382000BB786AF38613BB70109B1C600023237067
:10383000484607B0BDE8F08F1C46BFE76D42A21CAA
:103840002D236370C7E7BB68002BE9DD4FF0010A49
:10385000E6E700BF1F85EB51676666662DE9F04F0E
:1038600095B006460D4690460393002498F8000054
:10387000002800F04383252808D008F101082946D4
:10388000B0470028C0F23B830134EFE700230693E2
:103890000793089309930A930B930DF14D02059238
:1038A0008DF81330414608A807F02DF981469DF8A0
:1038B000213013F0010F00F09E80039B1A1D03922C
:1038C0001F68002FC0F28F809DF8213013F0040F85
:1038D00000F0A380039B1A1D0392D3F800A0BAF155
:1038E000000FC0F29180002309930A939DF82230C3
:1038F00003F00703042B00F099809DF8223003F0B9
:1039000007039DF82120C2F3C302012B00F09E8023
:10391000022B00F0E380042B00F03481032B00F035
:103920004B819DF8202012F0030F40F04B819DF851
:103930002330253B532B00F2FC81DFE813F04F01CD
:10394000FA01FA01FA01FA01FA01FA01FA01FA019F
:10395000FA01FA01FA01FA01FA01FA01FA01FA018F
:10396000FA01FA01FA01FA01FA01FA01FA01FA017F
:10397000FA01FA01FA01FC01FA01FA01FA01FC016B
:10398000FC01FC01FA01FA01FA01FA01FA01FA015B
:10399000FA01FA01FA01FA01FA01FA01FA01FA014F
:1039A000FA01FA01B101FA01FA01FA01FA01FA0188
:1039B000FA01FA01FA01FC01FA019C01A501FC01DE
:1039C000FC01FC01FA01A501FA01FA01FA01FA0170
:1039D000F501B101DC01FA01FA015701FA01B10167
:1039E000FA01FA01B1019DF8203043F004038DF88B
:1039F00020307F4268E79DF92030002B02DB4FF03A
:103A0000FF3761E7099F5FE79DF821306FF34103BE
:103A10008DF821304FF0FF3A65E713F0020F02D026
:103A2000DDF828A05FE74FF0FF3A5CE79DF8213012
:103A300013F0020F7FF461AF9DF92130002B02DB00
:103A40004FF0060A59E74FF00D0A56E7D31E042B34
:103A500004D8DFE803F00B1D29353500039B191D41
:103A600003911B68D9170693079106E0039B191D64
:103A700003911B68D91706930791012A28D0022ABF
:103A80007FF44FAFBDF91830DA170693079248E775
:103A9000039B073323F0070303F108010391D3E9E4
:103AA0000001CDE90601E8E7039B073323F0070394
:103AB00003F108010391D3E90001CDE90601DCE738
:103AC000039B191D03911B68D91706930791D4E72F
:103AD0009DF8183006930023079322E7D31E042B8A
:103AE00004D8DFE803F00B1F35414100039B191D8B
:103AF00003911B680693002307931EE09DF8233073
:103B0000632B07D0039B191D03911B6806930023A9
:103B1000079312E0039B191D03911B680693002372
:103B200007930AE0039B073323F0070303F108011F
:103B30000391D3E90001CDE90601012A1CD0022A34
:103B40007FF4EFAEBDF81830069300230793E8E644
:103B5000039B073323F0070303F108010391D3E923
:103B60000001CDE90601E8E7039B191D03911B68DD
:103B7000069300230793E0E79DF81830069300238F
:103B80000793CEE6082A0BD0039B073323F00703E5
:103B900003F108020392D3E90023CDE90623C0E62E
:103BA000039B073323F0070303F108020392D3E9D1
:103BB0000023CDE90623B4E6039B1A1D03921B687C
:103BC0000693AEE64B4642462946304607F087F854
:103BD0000028C0F294810444C84647E629462520BF
:103BE000B0470028C0F28B810134A2E0DDF81880D4
:103BF000BAF1000F3BDB5146404607F0FDFD404463
:103C00000590B8F1000F00F09480059BA3EB08032A
:103C10009DF8130000B101339DF8221011F0100F30
:103C200000F096800233099A134411F0400F01D03E
:103C30000A9A1344002F40F3A380FF1A9DF8203006
:103C400013F0040F40F09C8013F0400F00F09180BF
:103C5000002800F091802946B0470028C0F24F812B
:103C6000013400238DF813304FF0300A86E04046CF
:103C700007F0B9FDC3E7069B8DF834300DF135032D
:103C800005930DF13408C0E712F0080F23D02B2361
:103C90008DF81330069A079B002B23DB06920793BF
:103CA000059B00930DAB08AADDE9060106F0A8FF0D
:103CB0008046BAF1000FA4DB059BA3EB08039DF837
:103CC00020206FF386128DF820209A4599D9AAEB0F
:103CD0000303099395E712F0100FDBD020238DF832
:103CE0001330D7E72D218DF81310524263EB4303B5
:103CF00006920793D4E7069820B9824B0593A3F167
:103D0000050882E7059B00930DAB08AA002106F089
:103D100077FF80469DF8223043F010038DF8223063
:103D200078238DF82330C4E72246069908A806F0C8
:103D3000B7FFC8469AE505AB00930DAB0DF1130232
:103D4000514608A89DED060BFFF79AFB804658E701
:103D500011F0080F3FF467AF013364E701343B46CD
:103D60005F1E002B0CDD29465046B0470028F5DACF
:103D7000C5E04FF0200A01E04FF0300A3B46EFE784
:103D80009DF8130028B12946B0470028C0F2B7803B
:103D900001349DF8223013F0400F72D09DF921308C
:103DA000002B0EDB98F80000A0F13003092B15D88A
:103DB00008F101082946B0470028C0F2A08001346C
:103DC000F0E798F80000702844D008F1010829466F
:103DD000B0470028C0F293800134F2E7DDF824A058
:103DE0009DF8223013F0200F11D098F800002E28F3
:103DF0001CD098F80000A0F13003092B2AD808F154
:103E000001082946B047002879DB0134F1E70AF1BF
:103E1000FF3BBAF1000F07DD29463020B0470028EC
:103E20006DDB0134DA46F2E7DA46DEE708F1010835
:103E30002946B047002862DB01340AF1FF3BBAF1A2
:103E4000000FD6DD29463020B047002857DB01346B
:103E5000DA46F2E70A9B03F1FF3A002B07DD294619
:103E60003020B04700284ADB01345346F3E7059B76
:103E700042462946304606F032FF00283FDB044424
:103E800032E09DF82230C3F30012C3F3C0031A439B
:103E900005D029463020B047002830DB01349DF89A
:103EA000223013F0100F06D029469DF82300B047AA
:103EB000002824DB0134099B03F1FF3A002B07DDC6
:103EC00029463020B047002819DB01345346F3E778
:103ED000059B42462946304606F001FF00280EDBCE
:103EE000044401E00134013F002F05DD2946202074
:103EF000B0470028F6DA02E0C846B7E4204615B01D
:103F0000BDE8F08F19E20000054B984204D3054B41
:103F1000984203D30020704700207047012070476B
:103F2000C8DA000064ED000008B5064B186018B14F
:103F3000054B1B68092B00DC08BD044804F0C0FEDB
:103F4000FAE700BFCC0A0020D40A00203C0300207E
:103F500008B5024804F0B4FE08BD00BF3C030020D1
:103F600008B5034806F0E4FE003818BF012008BD7C
:103F7000DC0A002030B589B000220F490F4809F053
:103F800027FD0F4D00220023CDE9062300240494D1
:103F90000E2303930294019400940A4B4FF4407251
:103FA0000949284609F0C5FA0849284609F0ACFA3B
:103FB000204609B030BD00BF513F00003004002052
:103FC00050030020A9440000001200202CE2000051
:103FD000184BBFF35B8F53E8002F511C43E80010D0
:103FE0000028F8D1BFF35B8F1ABB70B5002409E03D
:103FF000114B03EB06135B6804221968284600F096
:1040000093FA01340D4B0C4A9B1AB4EB231F0FDAC1
:104010002646094D05EB04152B7B002BF1D023011F
:10402000054AD3589B69002BE2D028469847DFE722
:1040300070BD7047D80A002058DD000068DD000020
:1040400038B108B5044A1060084600F0EBFC0020C7
:1040500008BD6FF0150070479801002008B50023D7
:104060000A4A13700A4A13604FF400410948FFF7E7
:10407000E7FF00F07DFA084806F04CFE04232822F2
:104080000649074809F0E5F908BD00BFAE11002058
:10409000D00A00205FAD0000DC0A0020E8330020D9
:1040A000E40A002010B54FF02003EFF3118483F3EE
:1040B0001288BFF36F8F044806F03CFE84F311882A
:1040C000BFF36F8F10BD00BFDC0A002008B5054BA1
:1040D0001B781BB1034B01221A7008BD024804F083
:1040E000EFFDF7E7AD1100203C0300200C4BBFF3C0
:1040F0005B8F53E8001F013143E80012002AF8D11A
:10410000BFF35B8F074BBFF35B8F53E8001F013991
:1041100043E80012002AF8D1BFF35B8F704700BF5D
:10412000D00A0020D40A0020064B00200146BFF32D
:104130005B8F53E8000F43E80012002AF9D1BFF368
:104140005B8F7047D00A002038B5FFF7EDFF0546BA
:10415000002400E001340B4B0B4A9B1AB4EB231FE5
:104160000FDA094800EB041043685B79002BF1D0AB
:104170002301054AD3581B69002BEBD029469847E9
:10418000E8E738BD68DD000058DD0000034B186823
:104190000028D4BF00200120704700BFD00A0020B3
:1041A00010B582B00446FFF7AFFE10BB002200231B
:1041B00001A9114804F0A8FB08B1104C19E0019BBB
:1041C0000122BFF35B8F53E8001F43E80020002863
:1041D000F9D1BFF35B8F1F2221460198043007F00D
:1041E000E7FA019C7E2384F82330002384F82430EE
:1041F0000434204602B010BDE40A002034E200007E
:1042000038B1074A904206D3A032904205D300202D
:10421000704700207047002070470120704700BFA2
:10422000E8330020037A13F0010F00D070472DE926
:10423000F04383B0064606F0F4FE0746304606F02B
:10424000DBFE0146384606F08EFD054603E00122FE
:10425000A24025EA02056DB3B5FA85F4C4F11F0446
:104260002146304606F0CBFE8146FFF74DFE002882
:10427000EDD14846FFF7C4FF0028E8D10F4B994520
:10428000E5D07189C1F3891100F03EF902460C4B6B
:104290000C495B1ADB08012161F302086FF3C508C2
:1042A00063F38F18ADF800803B462146064806F0C0
:1042B000AFFDCCE703B0BDE8F08300BF34E20000FF
:1042C000F8DC0000D8DC000050E20000F8B506463B
:1042D00019BB144B1B780BB1002403E0FFF7A2FFBE
:1042E000FAE70134104B114A9B1AB4EB231F14DA7E
:1042F0000E4D05EB04156B685B79002BF1D0314650
:10430000284606F01FFD0028EBD02701074BDB599C
:104310005B68314628469847E3E7304606F083FE5F
:10432000F8BD00BFAE11002068DD000058DD0000C0
:1043300010B50446114B1B7803B9D0B1FFF7B2FE9C
:10434000034680B15CB90E4ABFF35B8F52E8000FA1
:10435000013842E800010029F8D1BFF35B8F214604
:104360001846FFF7B3FF14B9FFF710FF10B9FFF7B6
:10437000F7FD10BDFFF7E8FEF9E700BFAD11002023
:10438000D40A002010B582B01D4BBFF35B8F53E8F9
:10439000002F511C43E800100028F8D1BFF35B8FB9
:1043A000184B1B783BB9184B1B6803B19AB10A2A0A
:1043B0001CD002B010BD4FF02003EFF3118483F343
:1043C0001288BFF36F8F0020FFF7B2FF84F31188CC
:1043D000BFF36F8FEDE700220023CDE900234FF4F8
:1043E00000420023094805F0A7FAE2E7002BE0D0DD
:1043F000064809F0F9FA064804F062FCD9E700BF64
:10440000D40A0020AE110020CC0A00203004002085
:104410003C03002038B5044641810B4B1B6898478C
:10442000E0604FF02003EFF3118583F31288BFF3B0
:104430006F8F2146054806F071FC85F31188BFF3A4
:104440006F8FFFF79FFF38BD98010020DC0A002026
:10445000124B1B7803B1704710B5FFF7B9FD00246C
:1044600000E001340E4B0F4A9B1AB4EB231F0CDA09
:104470000C4800EB041043685B79002BF1D023015A
:10448000084AD3585B699847EBE70020FFF750FFD5
:104490000028FAD1014B01221A7010BDAE11002084
:1044A00068DD000058DD000008B5FFF791FD05F05C
:1044B0001BF8FFF739FD0020FFF73AFF0028FAD17B
:1044C0004FF0FF324FF0FF33014804F01DFCF2E7DC
:1044D0003C03002000B583B004380190BFF35B8F2C
:1044E00050E8003F013B40E80032002AF8D1BFF31A
:1044F0005B8F13B103B05DF804FB01A9014808F01C
:10450000B6FFF7E7E40A0020054B064A9B1AB1EB19
:10451000D30F02D252F8310070470020704700BF1D
:1045200058DD0000D8DC000008B5074BC31A1B118A
:1045300001334268137143681960436801225A715C
:10454000FFF7C4FD08BD00BF58DD000010B582B004
:10455000019005E01C6801A9044808F088FF019457
:10456000019B002BF6D102B010BD00BF000B002054
:1045700008B520231A460249024808F06AFF08BD20
:1045800088340020000B002010B582B00023019376
:104590000120FFF7CDFE0446FFF7A8FD002200230F
:1045A00001A9044804F0B0F908B1002CF0D1019839
:1045B00002B010BD000B002000B583B000230193B2
:1045C00006F067FC50B10022002301A9074804F05F
:1045D0009BF930B9019803B05DF804FB0022002379
:1045E000F3E7FFF7D1FF0190F4E700BF000B0020D5
:1045F000F0B583B00190044606F0FEFC237A13F078
:10460000010F01D1064650BB019B1A7A12F0020F2E
:1046100028D101A9154808F02AFF03B0F0BD019880
:1046200006F0FFFC314606F09EFB074670B9EBE74B
:104630000134B442E8D22146019806F0E0FC054678
:10464000FFF7DEFD0028F3D0002FE8D027FA04F3AF
:1046500013F0010FECD02846FFF73CFFE8E70027F6
:104660003C46E6E75869FFF771FFD2E7000B0020F0
:104670000EB400B582B0014603AB53F8042B01938E
:104680000348FFF7EBF802B05DF804EB03B07047A6
:104690009FB4000030B585B011F0440F05D01A4B1F
:1046A0001C6834B9002005B030BD1849FFF7E0FFA1
:1046B000F9E7174B1968B2FBF1F1B1FBF4FC154AAD
:1046C000A2FB0C32D20A4FF4616E0EFB12CE124BDB
:1046D000A3FB0E535B0904FB1C114FF47A7C0CFB0B
:1046E00001F1B1FBF4F504FB15110CFB01F1B1FB79
:1046F000F4F102910195C3EB0311AEEB810100913E
:104700000649FFF7B5FFCEE7200B002094E200003A
:104710001C0B0020C5B3A29189888888A0E2000004
:1047200061B108B52AB1064A52F8232012B9054AE8
:1047300000E0044A0449FFF79BFF08BD704700BF33
:1047400040E30000BCE20000F0DD000011F0100FBB
:104750000BD108B511F0200F03D00449FFF788FFF3
:1047600008BD0349FFF784FFFAE77047E0E1000066
:10477000C4E200002DE9F04105460F461646984672
:104780000699FFF7E3FF0024444505DA234928464C
:10479000FFF76EFF0134F7E7002409E01F492846C0
:1047A000FFF766FF0BE01E492846FFF761FF013463
:1047B0000F2C0CDC002C02DD14F0070FEED0B442FD
:1047C000F1D23A5D17492846FFF752FFEFE7164945
:1047D0002846FFF74DFF002409E010492846FFF75F
:1047E00047FF0BE011492846FFF742FF01340F2C29
:1047F00012DC002C02DD14F0070FEED0B44206D21A
:104800003A5DA2F120035E2BECD92E22EAE70349A0
:104810002846FFF72DFFE9E7BDE8F081ECE2000054
:10482000D0E20000C8E20000D4E20000D8E20000BC
:104830002DE9F041044690461E46BDF9187059B95D
:104840000025002F1DDBB8F1000F0ED0079B042BB5
:104850001AD0DFF844800AE00D4B079A53F8222063
:104860000C49FFF705FF0546EBE7DFF82C803946DA
:104870003046FFF749FE024641462046FFF7F8FE64
:1048800005442846BDE8F081DFF81080EFE700BF5F
:1048900054E30000E8E20000E0E20000DCE2000097
:1048A0002DE9F04F85B005460C46164603939DF85A
:1048B000388001F0020B01F0010AC1F3C00906F0D3
:1048C000E6FAE8B1024613492846FFF7D1FE07464B
:1048D000BBF1000F16D142465146284606F05FFC58
:1048E000CDF80480BDF9403000939DF83C3032464D
:1048F00049462846FFF79CFF384405B0BDE8F08FD5
:104900000027E5E7039A21462846FFF7C3FE074440
:10491000E1E700BFF0E200002DE9F04389B007466F
:104920000E469146984606F07CFB02460F493046FB
:10493000FFF79EFE002409E0CDF800804B460DEB0A
:1049400005013046FFF716FF039D2C441025039503
:10495000234603AA0DEB0501384606F00BFC039A2B
:10496000002AE9D109B0BDE8F08300BFF0DD000006
:10497000F0B583B006460C4600273D460DE0A26820
:104980001A4412F8017C0A2F14BF00270127204681
:1049900006F078FD019B1D4473B1E36801932B463B
:1049A00001AAA168304606F0E5FB6368019A1A6027
:1049B000019B002BEBD0E2E70FB903B0F0BD024939
:1049C0002046FFF755FEF8E7F4E2000070B582B02C
:1049D0000446056842F20F738B4228BF0B460E4A0D
:1049E0000521684605F0E4FB064663685B680B2218
:1049F0000A49284606F0C6FB63685B68324669468A
:104A0000284606F0BFFB63685B681B220449284602
:104A100006F0B8FB02B070BD70E1000014E30000C6
:104A2000F8E20000074B01221A6004E04008054A42
:104A300013685B001360044B9842F7D8034B18606F
:104A4000704700BF1C0B002040420F00200B0020CD
:104A5000034B01221A70034B034A1A60704700BFD0
:104A6000AF110020B80B0020BC0B002008B518B90E
:104A7000074B00221A7008BD064B1B7823B141F288
:104A8000883008F066FFF6E7052006F064FDF2E7DF
:104A9000AF110020B011002038B504460A4B0122A6
:104AA0001A700A4B1B782BB938BD651E2046FFF7DC
:104AB000DDFF2C46002003F0F5FC0028F4D0024B6B
:104AC0001B78002BF1D1EFE7AF110020B0110020CF
:104AD0002DE9F04106460D4604270DE02A463146F1
:104AE000002003F07BFC04461CE03846FFF7D4FFAF
:104AF0001CBB164B1B7803B3154B1B78002BEDD159
:104B0000DFF850804FF0FF324FF0FF33404604F0A3
:104B100015F82A463146002003F060FC0446404662
:104B200004F08AF8002CE0D1084B1B78002BDFD072
:104B3000013F3846FFF79AFFDAE714B9034B1B78B9
:104B400003B92C462046BDE8F08100BFAF1100201C
:104B5000B01100202803002008B5034B01221A7071
:104B6000024806F08FFC08BDB011002094E300005D
:104B700008B50248FFF72AFF08BD00BF94E3000014
:104B800008B50A460021024806F0FBFC08BD00BF3C
:104B900094E3000070B505464FF02003EFF3118653
:104BA00083F31288BFF36F8F0E4B1C680DE0A26871
:104BB0003AB10D4B1B7D03EB43030C4911F8230065
:104BC00090472346246804B123B12CB1002DEED0C8
:104BD0006268EDE71C46F8E786F31188BFF36F8F34
:104BE00070BD00BFE40B002048060020D80B002059
:104BF00010B584B0144B1C7D2146144806F0D2FC3D
:104C0000D0B104EB4402124B03EB820393E807009C
:104C100004AB03E907000F4B83B106F089FE0020C7
:104C2000FFF7B8FF0A4A04EB4404A10002EB840436
:104C3000002353506360A36004B010BD002383F3CE
:104C40001188BFF36F8FEAE748060020EC0B0020C5
:104C5000D80B002031B90000F0B589B005462E4BC5
:104C60001C7D21462D4806F0CDFC60B304EB4403C7
:104C70002B4A12F82330002B4BD0B5F1FF3F32D135
:104C800004F0FCF80120FFF785FF2146254806F0D7
:104C9000D2FC04EB4402224B03EB820393E80700AF
:104CA00008AB03E90700204B0BB106F031FEFFF71C
:104CB0009FFF04F0C9FA01252146184806F08EFC32
:104CC000284609B0F0BD04EB4403154E06EB8306FD
:104CD0006F462A462146384606F0C0FC97E8070092
:104CE00086E80700C2E704EB44020D4B03EB8203A6
:104CF0009868410CC0030D4BC0180D4A4FF00003DB
:104D000041F10001FBF7BAFD0121281A08F0F2FD7C
:104D1000B6E70025D0E700BF48060020D40B0020EE
:104D2000D80B0020EC0B002011B900003F420F000F
:104D300040420F00014910220A60704710ED00E068
:104D400072B6404080F31188BFF36F8FBFF34F8F6F
:104D500030BF62B6BFF36F8F704700BF72B6494075
:104D600081F31188BFF34F8F20BF80F3118862B6A3
:104D7000704700BFF0B58BB005464B4C4B4BE41A67
:104D8000E40801274FF0000367F302036FF3C50344
:104D900064F38F13ADF800308368426801684448BB
:104DA00006F036F84FF0000367F302036FF3C50314
:104DB00064F38F13ADF800306B692A69E9683D48E8
:104DC00006F026F84FF0000267F302026FF3C50207
:104DD00064F38F12E969384805F0F4FF002441E0DC
:104DE000314B324A9B1ADB08012262F302066FF351
:104DF000C50663F38F16029404F1080305EB8303E1
:104E0000D3ED007AFCEEE77ACDED037AA318049394
:104E100004F1090305EB8303D3ED007AFCEEE77A96
:104E2000CDED057AA31C069304F10A0305EB830379
:104E3000D3ED007AFCEEE77ACDED077AE31C089318
:104E400004F10B0305EB8303D3ED007AFCEEE77A64
:104E5000CDED097A334608220DEB0201174805F023
:104E6000EDFF04340F2CBBDD0F4C104BE41AE408AB
:104E700001264FF0000266F302026FF3C50264F3ED
:104E80008F12296E0E4805F09DFF4FF0000266F369
:104E900002026FF3C50264F38F12A969094805F095
:104EA00091FF0BB0F0BD00BF08DD0000D8DC0000B2
:104EB000A8E30000D8E3000008E4000018E40000C4
:104EC0005CE400006CE40000002807DB00F01F0237
:104ED000400901239340024A42F82030704700BF46
:104EE00000E100E000280CDB00F01F024009012374
:104EF00093402030034A42F82030BFF34F8FBFF376
:104F00006F8F704700E100E0002808DB4901C9B25B
:104F100000F1604000F5614080F80013704700F038
:104F20000F004901C9B2014B1954704714ED00E05C
:104F30004209054B53F8222000F01F00012303FA19
:104F400000F01040704700BF00E100E030BFFFF705
:104F5000FDBF00BF0C4BD3F8882022F47002C3F8C9
:104F60008820D3F8882042F4A002C3F8882003F5F3
:104F700000734FF040425A63BFF34F8FBFF36F8F00
:104F80000023E1EE103A704700ED00E008B5094B50
:104F900023F07F03084A9360BFF34F8FBFF36F8FF7
:104FA000FFF7D8FF03F04EFC04F010FB00F04CFDBF
:104FB00003F054FC0000000000ED00E00A4A936892
:104FC000C3F8900009490968C3F8941008494B6870
:104FD00043F080534B60002383F31188BFF36F8F3E
:104FE0009368D3F8940070474806002030EC000026
:104FF00000ED00E001B508F0BEFABDE8014025492A
:105000008A6882F8D9E04FF038001044EFF3098C39
:1050100080E8F01F1EF0100F03D102F1980080EC21
:10502000108A202080F31288BFF36F8F1A4F4FF041
:1050300000660A6A8A603E6092F9D9E0D2F8900070
:105040000023C2F8903080F311881EF0100F03D0B7
:105050000023E1EE103A03E002F1980090EC108A90
:10506000EFF3148323F0040383F31488BFF36F8FEB
:1050700004B5104600F096FDBDE8044002F138008A
:1050800090E8F01F8CF3098801B503F039FDBDE805
:10509000014070474806002004ED00E01EF0040FB8
:1050A0000CBFEFF30880EFF30980816911F8021C4F
:1050B0000229FFD001B506F0E2FA01BD10B4017B70
:1050C00011F0020F09D0D0F880106031C0F88010C4
:1050D000D0F884106039C0F88410A2F1200415497A
:1050E00042F8081C21F0010142F8081C42F8203C5B
:1050F000019B42F81C3C029B42F8183C039B42F87F
:10510000143C4FF0807342F8043C84650023C0F8DF
:105110009030C0F8D830FD2380F8D930037B13F0ED
:10512000020F03D04FF60853C0F8D8305DF8044B97
:10513000704700BF8BA40000037B13F0020F1ED149
:1051400090F8D93013F0100F19D01D4A536B23F08B
:1051500080435363D0F8D83013F0080F2DD023F0DC
:105160000803C0F8D830D0F88030603BC0F88030F9
:10517000D0F884306033C0F8843020207047104A63
:10518000536B43F080435363D0F8D83013F0080FCB
:105190000DD143F00803C0F8D830D0F88030603328
:1051A000C0F88030D0F88430603BC0F88430037B96
:1051B00043F002030373802070472020704700BF34
:1051C00000EF00E0164B9B68FBB1D3F8D82012F03B
:1051D000080F0FD0802210F1160F0DD010B4D3F8A5
:1051E0008040A21A824212D8844214D98C4209D833
:1051F00000200DE02022EEE7D3F880208A420CD870
:1052000000207047D3F8800002E0002070470020A3
:105210005DF8044B70470020FAE7D3F88000704730
:105220004806002008B504460E46154606F049FA21
:10523000094B9C6003F064FC204600F0B3FC284658
:1052400086F30988002163B681F31188BFF36F8F5D
:105250000022002305F019F94806002001B572B6B6
:105260000B4AD06900281EBF0021D16108F087F9E0
:1052700062B6EFF30580A0F110004FEAC0000549C7
:10528000014409C99847BDE80140034908470000A7
:1052900048060020A0DB00009D520000044B9968E6
:1052A000186A884203D003494FF080520A60704761
:1052B0004806002004ED00E04FF0000C83F800C029
:1052C00002F07F4CBCF17F4F1FD102F00C0CBCF1FF
:1052D000080F04D012F0080F14D00846704708B524
:1052E0000B4B0C4A9B1ADB084FF00001012262F3C2
:1052F00002016FF3C50163F38F11074805F057FDF5
:10530000002008BD01221A7070470020704700BFBE
:1053100008DD0000D8DC00009CE4000008B54E4B1E
:105320004E4A9B1ADB084FF00001012262F3020192
:105330006FF3C50163F38F11494805F038FD494B00
:105340009B6A13F0007F21D1464B9B6A13F0807F4C
:105350002DD1444B9B6A13F4002F39D1414B9B6AEA
:1053600013F4802F45D13F4B9B6A13F4003F51D17A
:105370003C4B9B6A13F4803F5DD13A4A936A6FEAD3
:1053800003436FEA13439362002008BD324B334A54
:105390009B1ADB084FF00001012262F302016FF358
:1053A000C50163F38F11304805F001FDCCE72A4BAE
:1053B0002A4A9B1ADB084FF00001012262F3020126
:1053C0006FF3C50163F38F11284805F0F0FCC0E7C7
:1053D000214B224A9B1ADB084FF00001012262F3A5
:1053E00002016FF3C50163F38F11214805F0DFFC63
:1053F000B4E7194B194A9B1ADB084FF00001012250
:1054000062F302016FF3C50163F38F11194805F0D0
:10541000CEFCA8E7104B114A9B1ADB084FF00001A5
:10542000012262F302016FF3C50163F38F11124889
:1054300005F0BDFC9CE7084B084A9B1ADB084FF0BF
:105440000001012262F302016FF3C50163F38F11C2
:105450000A4805F0ACFC90E708DD0000D8DC00004D
:10546000C8E4000000ED00E0E0E40000F4E4000027
:1054700010E5000030E5000058E5000074E500008C
:1054800008B500220A70084B08495B1ADB084FF088
:105490000001012060F3020162F3C50163F38F1183
:1054A000034805F084FC08BD08DD0000D8DC0000DE
:1054B000A0E5000070B505460E4614465E4B5F4AF7
:1054C0009B1ADB084FF00001012262F302016FF327
:1054D000C50163F38F115A4805F069FC594B9B6A6B
:1054E00013F4805F24D1574B9B6A13F4006F30D1C3
:1054F000544B9B6A13F4007F3CD1524B9B6A13F4CC
:10550000806F65D14F4B9B6A13F4807F71D14D4BF7
:105510009B6A13F4005F7DD14A4A936A43F47F4348
:1055200093620121284606F0DAF82070002070BD51
:10553000414B424A9B1ADB084FF00001012262F303
:1055400002016FF3C50163F38F113F4805F02FFC93
:10555000C9E7394B394A9B1ADB084FF00001012299
:1055600062F302016FF3C50163F38F11374805F051
:105570001EFCBDE7304B314A9B1ADB084FF000019F
:10558000012262F302016FF3C50163F38F1130480A
:1055900005F00DFC2B4B996B9B6A13F4004FACD0BC
:1055A000254B264A9B1ADB084FF00002012060F3CE
:1055B00002026FF3C50263F38F12264805F002FC66
:1055C000002E9AD01F4A936A23F40043936294E713
:1055D000194B1A4A9B1ADB084FF00001012262F3B3
:1055E00002016FF3C50163F38F111B4805F0DFFB68
:1055F00088E7114B114A9B1ADB084FF0000101228A
:1056000062F302016FF3C50163F38F11134805F0D4
:10561000CEFB81E7084B094A9B1ADB084FF00001DB
:10562000012262F302016FF3C50163F38F110C488D
:1056300005F0BDFB70E700BF08DD0000D8DC00000E
:10564000C4E5000000ED00E0DCE50000F0E500004E
:1056500004E6000020E6000038E6000054E6000002
:105660006CE60000F8B505460C461646644B654AE4
:105670009B1ADB084FF00001012262F302016FF375
:10568000C50163F38F11604805F091FB5F4B9B6A86
:1056900013F0100F32D15D4B9B6A13F0080F3ED10F
:1056A0005A4B9B6A13F0020F4AD16FF01507574B04
:1056B0009B6A13F0010F75D1544B9B6A13F0200FB6
:1056C00040F08180514B9B6A13F0100F04D14F4B77
:1056D0009C6A14F0020405D04C4B5C6814F400641E
:1056E00040F08280494A936A43F0FF0393620121AC
:1056F000284605F0F4FF30702046F8BD404B414A83
:105700009B1ADB084FF00001012262F302016FF3E4
:10571000C50163F38F113E4805F049FBBBE7384BE9
:10572000384A9B1ADB084FF00001012262F30201A4
:105730006FF3C50163F38F11364805F038FBAFE70F
:105740002F4B304A9B1ADB084FF00001012262F315
:1057500002016FF3C50163F38F112F4805F027FB9A
:105760002A4B5F6B9B6A13F0800F02D16FF0150715
:105770009DE7234B234A9B1ADB084FF000020121CF
:1057800061F302026FF3C50263F38F1239462348B7
:1057900005F018FB002C8AD01C4A936A23F0800382
:1057A000936284E7164B174A9B1ADB084FF00001FF
:1057B000012262F302016FF3C50163F38F111848F0
:1057C00005F0F5FA78E70E4B0E4A9B1ADB084FF00E
:1057D0000001012262F302016FF3C50163F38F112F
:1057E000104805F0E4FA6DE729463846FFF7EAFC71
:1057F000044600283FF476AF80F30988022471E75D
:1058000008DD0000D8DC00009CE6000000ED00E0B0
:10581000B4E60000F0E50000E8E6000000E7000064
:1058200018E700006CE6000070B505460C46464BD4
:10583000464A9B1ADB084FF00001012262F3020185
:105840006FF3C50163F38F11414805F0B0FA0023EF
:105850002370404BDE6A16F0020609D13D4BDB6A2D
:10586000002B17DB3B4BD86A10F0804024D170BD71
:10587000354B364A9B1ADB084FF00001012262F3D8
:1058800002016FF3C50163F38F11334805F08FFAFE
:105890000020ECE72C4B2D4A9B1ADB084FF000014F
:1058A000012262F302016FF3C50163F38F112B48EC
:1058B00005F07DFA3046DAE7234B244A9B1ADB08D1
:1058C0004FF00001012262F302016FF3C50163F39F
:1058D0008F11234805F06BFAAB6933F8022C4DF6B3
:1058E00002739A420DD01B4B93F82830E3B9194B41
:1058F00093F82930F3B9174B5B8D9BB203BB30464D
:10590000B5E7114B114A9B1ADB084FF00002012149
:1059100061F302026FF3C50263F38F122968114825
:1059200005F050FA2868A2E7224601212846FFF731
:1059300099FE9CE7224601212846FFF7BBFD96E72A
:105940002846FFF7EBFC92E708DD0000D8DC0000FA
:1059500038E7000000ED00E050E7000074E70000C9
:1059600084E70000A4E7000008B50A460B480C4B8A
:10597000C01AC0084FF00003012161F302036FF366
:10598000C50360F38F130F2A05DC0649103A064859
:1059900005F02AFA08BD0549F8E700BF08DD000058
:1059A000D8DC0000C0E70000F4E70000D8E7000002
:1059B00030B59DB01A4B5C68C4F30804002383F330
:1059C0001188BFF36F8F0DF16E03FFF775FC05466D
:1059D0000DF16F02214605F084FE9DF86F300BB18A
:1059E0001DB030BD04466822294601A805F02BFFF2
:1059F0009DF86E304BB1089BC3F308025AB96FEAA9
:105A000053236FEA4323089305E0089B23F4FF73B5
:105A100023F00103089301A9204605F024FEDFE7E7
:105A200000ED00E0024A536943F0100353617047F0
:105A300000ED00E0EFF30880EFF3098101B5724655
:105A4000FFF7B6FF01BD00BF002206E003F00F0321
:105A50000949194420230B760132262A0ADC53B265
:105A6000002BF3DB03F1604303F56143202183F84E
:105A70000013F1E7704700BFFCEC00E0002080F36A
:105A80001488BFF36F8F08F019F8002011490860DF
:105A9000BFF34F8F104880F3088800F035F82020BE
:105AA00080F311880D484FF0AA014FF4026205F00F
:105AB000FAFE0A484FF40261401880F30988EFF3B8
:105AC00014800221084380F31488BFF36F8FFFF71F
:105AD0005DFA000094ED00E0802F0020801500208A
